:020000040000FA
:10000000C0162020C1020000C5020000C702000087
:1000100000000000000000000000000000000000E0
:10002000000000000000000000000000C902000005
:100030000000000000000000CB020000CD02000024
:10004000CF020000C5320000213600003937000021
:10005000CF020000CF020000CF020000CF0200005C
:1000600000000000CF020000CF02000000000000EE
:10007000000000008D360000E9360000393600002F
:10008000E135000001360000C1350000D135000027
:1000900011360000F13500000000000000000000F3
:1000A000CF020000CF0200000000000000000000AE
:1000B000CF02000000000000CF020000CF020000CD
:1000C00000F002F800F0D1F812A030C80838241867
:1000D0002D18AC4201D100F0C8F80FCCA246AB46B7
:1000E0000CA730CF2D1B083F3F197C427F1E544484
:1000F0002D090426F441641EAC4201D300F0B5F88A
:100100000126334200D0FB1A3343984754465D46DC
:10011000DFE70000848C0000A48C000000000000D9
:10012000103A02D378C878C1FAD8520701D330C840
:1001300030C101D504680C60704700000000000069
:100140007047000000000000002300240025002666
:10015000103A01D378C1FBD8520700D330C100D583
:100160000B60704710B56E2902D101F08FF910BDF8
:10017000702902D101F0C9FA10BD662902D108F038
:100180003FF910BD652902D108F03AF910BD672981
:1001900002D108F035F910BD612902D108F038F913
:1001A00010BD03681B0A01D380231943692902D1BA
:1001B00001F036F910BD642902D101F031F910BD0A
:1001C000752902D101F02CF910BD6F2902D101F07F
:1001D00047FA10BD782902D101F084FA10BDE9294F
:1001E00002D101F0E3F910BDE42902D101F0DEF9FA
:1001F00010BDF52902D101F0D9F910BDEF2902D1C6
:1002000001F03AFA10BDF82902D101F079FA10BDD7
:100210000368DB0901D380231943632902D101F06C
:100220005CFF10BD732902D101F05FFF10BDE3290F
:1002300002D101F069FF10BDF32902D101F06CFF7A
:1002400010BD002010BD1FB502F04EF804000020C4
:10025000002107F0D7FE401C60600020002107F05D
:10026000BBFEE0601FBD10B510BD02F015F81146D1
:10027000FFF7E9FF05F0F4F802F0AAFB03B4FFF77B
:10028000F2FF03BC03F09AFA70B505460C46164619
:1002900002E00FCC0FC5103E102EFAD2082E02D36A
:1002A00003CC03C5083E042E07D301CC01C5361F7D
:1002B00003E021782970641C6D1C761EF9D270BD94
:1002C00006480047FEE7FEE7FEE7FEE7FEE7FEE73B
:1002D00003480449044A054B70470000C100000070
:1002E000C0022020C0162020C0062020C0062020EA
:1002F0000FB41CB5084B06AA7B44694600900598CC
:1003000001F0DDF804460020694601F0EBF82046D4
:100310001CBC08BC04B01847E911000030B5441CEF
:1003200003E00178401C00290DD08107F9D10B4B67
:10033000DD0104C8D11A91432940FAD0001B0A06F6
:1003400003D0C01E30BD001B30BD0A0401D0801E8A
:1003500030BD0902FCD0401E30BD0000010101018A
:10036000F8B5042A2CD3830712D00B78491C0370EC
:10037000401C521E83070BD00B78491C0370401C95
:10038000521E830704D00B78491C0370401C521E78
:100390008B079B0F05D0C91ADF002023DE1B08C97D
:1003A0000AE0FFF771FFF8BD1D4608C9FD401C4675
:1003B000B4402C4310C0121F042AF5D2F308C91A06
:1003C000521EF0D40B78491C0370401C521EEAD414
:1003D0000B78491C0370401C012AE4D40978017091
:1003E000F8BD01E004C0091F0429FBD28B0701D529
:1003F0000280801CC90700D00270704700290BD012
:10040000C30702D00270401C491E022904D383078F
:1004100002D50280801C891EE3E70022EEE700225D
:10042000DFE70000024670B50A4392072AD11E4D4D
:10043000EE0104C808C9541B9443344017D0D0B20D
:10044000D9B2401A2106014310D190B299B2401A94
:10045000210401430AD110021902000A090A401AB4
:100460002102014302D1100E190E401A70BD9A42AA
:10047000DFD010BA19BA884201D9012070BD00201E
:10048000C04370BD02780B78401C491C002A09D07B
:100490009A4207D102780B78401C491C002A01D0EF
:1004A0009A42EFD0D01A70BD010101010022030968
:1004B0008B422CD3030A8B4211D300239C464EE07F
:1004C00003460B433CD4002243088B4231D303093B
:1004D0008B421CD3030A8B4201D394463FE0C309ED
:1004E0008B4201D3CB01C01A524183098B4201D305
:1004F0008B01C01A524143098B4201D34B01C01AF0
:10050000524103098B4201D30B01C01A5241C30867
:100510008B4201D3CB00C01A524183088B4201D3D6
:100520008B00C01A524143088B4201D34B00C01AC2
:100530005241411A00D201465241104670475DE0D7
:10054000CA0F00D04942031000D3404253409C469A
:10055000002203098B422DD3030A8B4212D3890157
:10056000FC2212BA030A8B420CD3890192118B42EE
:1005700008D3890192118B4204D389013AD0921198
:1005800000E08909C3098B4201D3CB01C01A524153
:1005900083098B4201D38B01C01A524143098B421C
:1005A00001D34B01C01A524103098B4201D30B0105
:1005B000C01A5241C3088B4201D3CB00C01A52412A
:1005C00083088B4201D38B00C01A5241D9D2430811
:1005D0008B4201D34B00C01A5241411A00D201464E
:1005E0005241104663465B1001D34042002B00D5B8
:1005F0004942704763465B1000D3404201B505494C
:10060000002802DC491C084000E00846C046C046FD
:1006100002BD00BFFFFFFF7F7047704770470000BB
:10062000F0B50C46871A9C410D46861A9D4103D2AF
:10063000C01BA141D21963410D0D1F0DC94EEC1B0A
:10064000AE435CD07F057F0D0026002F51D02D05D5
:10065000AC46A943DD020123ED0A1B051D432023FF
:100660001B1B24D41746E740381871412F46E7403A
:10067000CC199D402818314661410C0D27D16144A9
:100680009A4013D50023401C594152000ED1400816
:10069000400001224B005205D34207D305204007FA
:1006A000C14201D5B04900E0B0493046F0BD6B0011
:1006B000002A00D001229A181F23203C1B1B01D5C1
:1006C000002302E0E540281871410C0DD7D0012429
:1006D00024050919C407CD0740084908E40F284339
:1006E0006144002CD5D00024401C61419A40D0D1F7
:1006F000CDE76A05520DD9D1C90FC907D5E79C4D81
:100700004E00002801D0012400E0002434195F00CD
:10071000002A01D0012600E00026BE19954FAC4208
:100720000CD8AE420AD8B44206D001256D05EC4281
:10073000BCD010461946F0BD9942FCD00020394685
:10074000F0BDF0B51FB40C460F46811A9F412546F7
:10075000861A9D4106D20125ED076F40401ABC4123
:1007600052187B41210D1E0D8D1BAC467D4D8D43D6
:100770007ED075056D0D7CD00D05AE46AC431B03D8
:100780001B0B794D52429D41202366469B1B14D37F
:100790001746F740381800260090744160462F46EF
:1007A0000741E41900989D402818664116D4714607
:1007B00071189A4025D5012320E093182A466A41F2
:1007C0005200002B00D0521C1E23203E9B1B002BEE
:1007D00061DD3541EE1728186641E8D500187641ED
:1007E0005B1C9A4000D3401C4B05F3181524E340D2
:1007F00010D3002B52D071467118D30FC01802D3FA
:10080000491C05B0F0BD0123DB079A42F9D140082D
:100810004000F6E701225205B21801D1002853D05A
:100820000123CC0ADB029943891E002A08D1020C5D
:1008300003D0020C0004103902E0024600202039E7
:100840000023550B05D112020823550B01D152018B
:100850000D23550C01D112011B1DD50C01D19200A5
:100860009B1C150D01D152005B1C2025EE1A01E0E6
:100870002CE022E00546F54015439840CA1AE107EE
:1008800069181305C918002ABBDA032040070818A5
:10089000C10FC9070FE071466118B2E7F1074008C0
:1008A0000843711071444A000CD001235B059A4241
:1008B000A7D2C90FC9070020A3E74905490D26D1D2
:1008C000002001E00028F4D100219AE7284D6600BD
:1008D000002801D0012100E0002171185F00002AEA
:1008E00001D0012600E00026BE19224FA94210D8EF
:1008F000AE420ED8B14208D001256D05E94206D0BE
:100900001946A802414010467BE79C4201D021468F
:1009100077E70020394674E710B50C465C4005D5F2
:100920000124E4076340FFF70CFF10BDFFF778FEDA
:1009300010BD30B40C465C4004D50124E40763408C
:1009400030BC6DE630BCFCE670B50124E4076140C4
:100950000D465D4002D4FFF763FE70BD6340FFF7B4
:10096000F0FE70BDFF0700000000F0FF0000F07F08
:100970000000E0FF0000F87FF0B5F94D0C091E09FA
:100980002C402E402F468BB0A7437DD0B543FCD0E2
:10099000002E7AD0002CFCD00D465D40ED0F254393
:1009A000AC1BFF25AD0464190894C502440DC902AF
:1009B0002143500DDC0204430120C00701430443DE
:1009C000D2020191200C110C00958C4601042346A3
:1009D0008B430A9161460904E24D8A430991010A59
:1009E0007D4449198039097805464D4301266D1823
:1009F000F605751B6943C90C640B891C4C436418CC
:100A0000B5012C1B250C2E04B4434C434D43210C43
:100A1000691889090591009DE90701D00121C907DD
:100A200004912C4601996708CD072F434C08059D7A
:100A3000E10B4D432D0C29466646754302950D4644
:100A400045432E46029D7D1BB44100950D465D43F6
:100A500001942C0C2F040D465543AE462D0C3D43FE
:100A6000029503947546049C2D04641B049406D2DD
:100A7000029C039D641C002675410395029401AC01
:100A800070CC009F7D1B01E03EE162E1B4410904AE
:100A90000095079101940599A4086143090C0C463F
:100AA0004443650BE7040C4666467443A646640B54
:100AB0003C43039502947446049DE4042C1B049467
:100AC00006D2029C039D641C002675410395029486
:100AD00001AC70CC009F7D1BB44101940C465C437B
:100AE0000095650FE7000C465443A646640F3C434F
:100AF000039502947446049DE4002C1B049406D2D2
:100B0000029C039D641C002675410395029401AC70
:100B100070CC009F7D1BB441AE09AF06049DC90097
:100B2000AD092F43049DA406AD060495079D3443EB
:100B300069180791059DE10B4D432D0C294666462A
:100B4000754302950D4645432E46029D7D1BB441DB
:100B500000950D465D4301942C0C2F040D46554322
:100B6000AE462D0C3D43029503947546049C2D041E
:100B7000641B049406D2029C039D641C00267541EC
:100B80000395029401AC70CC009F7D1BB44101948D
:100B90008C050694079C890A611800950791019CB1
:100BA0000599A4086143090C0D464543680BEF0401
:100BB0000D46644665436C0B3C43049FED047D1B6E
:100BC000AC4602D20025641C6841009E019D371B83
:100BD00085410846584301950C46460FC5005443CD
:100BE000600F28436546E4002C1B02D20025401C00
:100BF0006E41019D3F1AB5412846BD098006284334
:100C00008446A009BF064E020699A406761807433B
:100C1000079D002068410A99079019430020099B0D
:100C200000906046FF1913434041E20F64003A43CD
:100C3000A4460446D71A8C41A04203D90120009053
:100C400020463A46C70F941840416246D20F2243CD
:100C5000644664000494009CBE466400D71AA4460F
:100C6000044602978C417746002F01D1A04204D957
:100C70006046401C8446029A2046C40FA64694183B
:100C80004041049A0546D20F224364466400D31AB9
:100C90008D417146002901D1A84202D928461A4641
:100CA000641C10430122002800D01643610200207A
:100CB000079B891904465C410223002C02DB49187A
:100CC00013466441089DCE0A2D145D194B05670536
:100CD000E10A2C050D1908993E43C9076940002B0C
:100CE00008D0934006D30022761C5141002B01D13D
:100CF000760876001C4A002D43DB154241D0AA43FA
:100D00003FD030460BB0F0BD06180D464D41174C94
:100D10007642AC411AD395181C465C41134A6D4289
:100D2000A24113D3012252054C00D4420AD15C00E7
:100D3000D4420BD04B4002D592021143E2E7490066
:100D40004908DFE75940C90FC90718E000200849E2
:100D5000D8E7054801420DD10342F7D0F2E7000081
:100D60000000FF073C7A00000000F07F0000E0FF79
:100D70000000F87F114859400143C0124140002053
:100D8000C0E70123089A9B069A4205DC032252071A
:100D90008918C90FC907B5E7052252078918074AFC
:100DA0001143D2125140ADE770B515461C460246BC
:100DB0000B4628462146FFF7DFFD70BDFFFFFF7F92
:100DC00030B50346CA02400D1043164D164C0A15A5
:100DD00002D02043002A06DBAA1A002A12DDD040E6
:100DE000FF2A0BDC30BD5205520D01D140004008F6
:100DF000AA1A07D4D0404042FF2A01DD002030BDAE
:100E00000028FCDD4A00002B01D0012000E000207A
:100E1000101801225205D042F0D8C817C0436040D4
:100E200030BD00001E040000000000801F22030CE3
:100E300002D10F22000402D0030E03D004E00020F0
:100E4000014670470002083A030F01D10001121F4A
:100E5000830F01D18000921E002801DB4000521E4A
:100E6000120551184205C012411810467047C10FB3
:100E7000C90700D04042012292071143D6E7012161
:100E80008907D3E7F0B58B4C0F09254689B0BD43E0
:100E90007BD01D092646AE43FAD00E465E40274061
:100EA000F60F3E43254071D024012142FBD0FF24A0
:100EB000AD19A4042D1B039501252D05DB02DB0ACA
:100EC000C9022B43C90A29431E010901040F130F4C
:100ED000050121431701880B820391432D098C469C
:100EE000A90B1E438A039543B30B9A0396433F090C
:100EF000BA0B9403A74302962E467E430497B64648
:100F00004E19D7190C460196544305977E43371B5B
:100F10007646BF1B3601B646BE0B3619009676469E
:100F2000BC043719009C01D3641C00946400002F9A
:100F300001D001263443029E049F754366467E43DA
:100F40000496760034196E0034190094029C019EB8
:100F50001C196643751BAE46069465464519059CEB
:100F600005956C43594375460891691A0191049E91
:100F700001465143A41B0491611A009C0791E106AC
:100F800005D061090122114302E072E06EE06109BF
:100F9000089D00272C0A2D066918049D7C412A0A09
:100FA0002D066918019D6241AC0DAD026D185441CA
:100FB000079A910D920255196141029A644658436D
:100FC0005443069B059A5A43121A131B9A0E9B010F
:100FD0005B187A41010B0005C3185141220A200613
:100FE00044195A419A4200D2491C012040028142D0
:100FF00003D315230226F64302E014230326F64307
:101000002020C51AA9401746AF40DA400A432046BF
:101010000399D8400914731819055118039A3843D5
:10102000D2075140AC4009D00122944006D300229F
:10103000401C5141002C01D1400840001E4A9342FF
:1010400012D3012203989206904207DB0520400745
:1010500009181A480143C012414004E00320400728
:101060000818C10FC907002009B0F0BD0020F10722
:10107000FAE705180C464C4111486D42A04115D3C2
:1010800094181A465A410E48644290410ED30120EA
:101090004A004005824209D35A00824206D3594091
:1010A000C90F084AC90700201143DDE7002006499F
:1010B000DAE700000000FF07FE070000FFFFFF7FE8
:1010C0000000E0FF0000F07F0000F87F0121C9056B
:1010D0000123411842001B06D3185B0E0AD0C11031
:1010E0000722D206891840075242D14201D5520048
:1010F00089187047090208D50146002A03D0C10F9C
:10110000C9070020704710467047420202D00020F5
:1011100002497047072109050143F4E70000F87F01
:10112000F0B5FF252D04C609C209FF2704462E404D
:101130000137CB093E4348402A402B400746002A4E
:101140006BD0002B69D0AA4267D0AB4265D0002893
:1011500000DA32460125ED0529432C43090220021D
:10116000090AD21A4B0C7F24E31A434C000A7C4430
:10117000E35C7D242404121914145B00A218884235
:1011800001D3521C00E0400049420C465C4324114C
:101190005C43DB016415E318040A5C43C502200DBF
:1011A0000C4644436419250A5D432303EC0C0D46A9
:1011B000654300030019EB184C42A34201D35B18AE
:1011C000401CD4052018002B07D05B00C91804D39D
:1011D000401C002901D1400840003F2189048A4277
:1011E00009D3002A08DC1106090F04D0032149079E
:1011F0004018C00FC007F0BD012241001206891837
:101200007F2252069142F6D205214907C84201D5F4
:101210009010F0BDFF20C005F0BD002F00DA32466F
:101220001648AA4207D2AB4205D21902090E17D0BE
:10123000F80FC007F0BDFF2563002D06AB42F9D8BB
:101240004900A942F6D8AB4201D1A942F2D0A94245
:1012500001D1002101E061004908D0050843F0BD3B
:101260001102090EFBD0FF200243D005F0BD0A4653
:101270000146104654E700002E7300000000C07FB6
:1012800010B501469E240002CA15A307002A02D009
:101290001843002A04DBA21A002A0CDDD04010BD3E
:1012A0001206120E01D140004008A21A03D4D04009
:1012B00040420028F3DDFF2248001206904201D987
:1012C000002010BDC817C043584010BD0102C21510
:1012D00004D00123DB071943002A0ADB9E239A1A54
:1012E00002D40846D0407047FF22410012069142C6
:1012F00001D900207047C017C04370471F22030C5C
:1013000002D10F2200041CD0030E01D10002083AC2
:10131000030F01D10001121F830F01D18000921E23
:10132000002801DB4000521ED2055118021251184C
:101330001922904004D3491C002801D149084900D2
:1013400008467047C10FC90700D0404201229207EA
:101350001143D3E701218907D0E770B504468569B9
:101360000068C10601D5302600E02026C00707D05E
:1013700070BD62683046A1689047206A401C2062B8
:101380006D1EF6D570BD70B5044685690078C0073E
:1013900007D170BD6268A16820209047206A401C78
:1013A00020626D1EF6D570BD09684A0501D540B2B0
:1013B0007047C905FCD500B2704709684A0501D5D8
:1013C000C0B27047C905FCD580B2704770B50C46F5
:1013D0000546012A05D02878800600D5EA69002351
:1013E00002E0012305E05B1C934202D2E05C00288E
:1013F000F9D1A869E618C01AA861286AC01828623D
:101400002846FFF7AAFF04E06A682078A968641CF0
:101410009047B442F8D32846FFF7B5FF70BD0000EF
:10142000F7B5002575291068009914A611D0FFF7AB
:10143000BBFF002802DA404211A608E000990968C3
:101440008A0701D50FA602E0490704D50EA601259B
:1014500001E0FFF7B2FF009F0024243704E000F012
:1014600080FE30313955641C0028F8D12B463246B5
:101470002146009800F057FAFEBD00000000000071
:101480002D0000002B000000200000001168026801
:10149000006A530501D5087009E0D30501D508801D
:1014A00005E0130602D5C21705C100E0086001205F
:1014B0007047000001694A1C02610878704700B556
:1014C0008FB0029100210591054901937944039160
:1014D00011460490684600F025F90FB000BD0000E9
:1014E000E5FFFFFF0A681070521C0A607047000099
:1014F000F7B50446154686B02B487844002703C844
:101500003E460090019111E007986A467100415AE9
:1015100002A800F005FE411C07D02178890603D5FA
:10152000E269391891420ED83F18761C207880065F
:1015300002D5E069B84206DDAE42E5DB07987100EE
:10154000405A0028E0D1A069C01BA0612046FFF7E7
:1015500004FF154878445A3803C8009000200191D0
:1015600016E041006A460798415A02A800F0D8FDEB
:101570000590401C0AD0002505E0626802A8A16819
:10158000405D90476D1C05988542F6D30498401C39
:10159000B0420490E5DB206AC01920622046FFF7C4
:1015A000F2FE09B0F0BD0000E26F0000F7B5D21DF9
:1015B0000025D20815A6D200F52905CA11D0002AA7
:1015C00005DA00214042914111A60A4608E000993F
:1015D00009688B0701D50FA602E0490701D50EA6C1
:1015E00001251146009F0024243704E000F05EF935
:1015F00030323A55641C02460A43F7D12B46324634
:101600002146009800F08FF9FEBD000000000000A8
:101610002D0000002B0000002000000070B50446E3
:101620000021243408E05507D2086D0F3035655489
:101630005D072A43DB08491C15461D43F3D10468A6
:10164000002310A2250708D520252C400C4304D0E8
:10165000C46901230CA2641EC46100F064F970BD6A
:1016600010B5044621461068FFF7A7FE0023024686
:101670002046FFF7D3FF10BDD21DD108C9000CC909
:10168000CCE700000000000030000000F8B50F4675
:101690000188090502D5224C7C4402E0204C7C44A0
:1016A0000E3405460021243508E016071209360FCE
:1016B000A65D6E541E0732431B09491C16461E4385
:1016C000F3D1224604780023240705D5702F06D0D5
:1016D000002901D00223113200F025F9F8BD0123C1
:1016E0001032F9E770B504460D4621461068FFF741
:1016F00064FE0023024629462046FFF7C7FF70BD5F
:10170000D21DD308DB000CCBC0E730B40368202423
:101710001268234303600823C36130BC0023B5E78C
:101720004C6E0000F3B50446002081B020622046D4
:10173000E1688847002872D0252802D06268A16835
:10174000ABE0594F00267F442046E16888472028B7
:10175000054608DB312D06D278192038007800289C
:1017600001D00643F0E7B00701D5042086430020EE
:10177000E0610746A0612A2D0AD0284606F025FC24
:10178000002827D0B8000019303D0090856119E08D
:101790000298BA00121902C8916102902046E168CD
:1017A0008847012F054617D1E06900281FDA20205D
:1017B00086431CE000980A2180694843009940193B
:1017C000303888612046E1688847054606F0FDFB11
:1017D0000028EFD1012F0AD02E2D08D12046E16834
:1017E00088470546202006437F1C022FC3DBA069E3
:1017F000002803DA4042A06101200643F00701D02F
:10180000102086436C2D0BD0682D09D04C2D3CD078
:101810006A2D38D0742D38D07A2D36D016E040E0BD
:10182000E1682F4620468847B842054609D16C2F0B
:1018300029D001208002E1680643204688470546FA
:1018400004E06C2F1DD0FF2001300643002D28D06E
:1018500028464138192803D80120C0020643203504
:10186000204626602946029A1646FEF77BFC002891
:1018700010D001280BD0F61DF008C00008300290EF
:1018800055E74020E1E78020D5E70020D3E7361D6B
:1018900002964CE762682846A1689047206A401C7F
:1018A00044E7206AFEBD0000C66D00000B4670B51F
:1018B000024689078008084319469D08141AA94161
:1018C00025090807054308092C194841250A01067E
:1018D0000D43010A2C194141200C0D0428430D0C25
:1018E00000194D41002140194D41C00869070843C6
:1018F000E908840F8D002543840024184D412419E4
:101900006D41121BAB4107E00925ED432C11521923
:1019100063410024401C61411C460A250026551BDA
:10192000B441F1D270BDFFB504460D4681B02430FC
:1019300000902168880604D51022E0699143216057
:1019400000E00120A84201DD471B00E000270498C9
:10195000A1697A191018081AA0612078C00602D46B
:101960002046FFF7FAFC002608E003986268A168A9
:10197000805D9047206A401C761C20620498864255
:10198000F3DB2078C0060AD52046FFF7E6FC06E028
:101990006268A16830209047206A401C2062384667
:1019A0007F1E0028F4DC07E000986268A168405DB3
:1019B0009047206A401C206228466D1E0028F3DCF8
:1019C0002046FFF7E0FC2078000602D5022005B093
:1019D000F0BD0120FBE70000FFB50C461E468FB0AE
:1019E00003CA089009914F007D0D00D16D1E0021A2
:1019F00008460020C0460321099A89050840002AAC
:101A000003DA8200801840080840800D01280A90FF
:101A100002DD0020C0430A90089807430DD0F0482B
:101A2000F049281848430714189800281DD075421B
:101A3000291E1DDD0A9842421BE01898012802D099
:101A40000020302104E00020F24305E02154401C36
:101A5000B042FBDB30460022189B002121540F9935
:101A60008B600A60486013B0F0BDBD1B6D1CDFE7E2
:101A70000A9A002900DA69420BA800F07DFC0BAB42
:101A800007CB03AB07C30899099800F0E1FC6B464C
:101A900007C30146D4480918002D00910BDDD24937
:101AA00003980A9A49424018002303A90390684604
:101AB00000F03EFF08E003990A9A0023081803A9E2
:101AC0000390684600F0DEFE6B4607C30004000C7E
:101AD00003D00020C043410800E01046189A002AB5
:101AE00003D00022009215461EE0751E05D4FFF7B4
:101AF000DDFE303262556D1EF9D50122084307968E
:101B000002D000227F1C04E02078302801D100227E
:101B10007F1E002A069787D01EE0112D07DAFFF7F7
:101B2000C5FE303262556D1C02460A43F5D10843AA
:101B300003D00098002819D00EE00021681E05E0AF
:101B4000235C625C63542254401E491C8142F7DBD3
:101B5000A81B401E07950690079A18990020A054CC
:101B60000F98079B069A81600CC07CE71126002025
:101B7000189059E7D21DF0B50D460446D10893B030
:101B8000C90003C90C900D9106F0B8F902460D98F2
:101B9000C00F01D02D2007E02068810701D52B2040
:101BA00002E04007C00F4001032A0F9001D0072A2E
:101BB00005DB03462946204600F09AFB0EE120781B
:101BC000800601D5E76900E006272846652D04D088
:101BD000662814D0672D69D12DE00020112F0090C8
:101BE00001DB112300E07B1C0CAA03A910A8FFF75E
:101BF000F3FE1199002610987D1C0E9142E0012001
:101C00003B460CAAC0070B900120009003A910A826
:101C1000FFF7E2FE119D12981099002600280E95FC
:101C200001D1781C0D18781B02D446427D1C761E0B
:101C3000E81B00903AE0012F00DA01270020112F65
:101C4000009001DD112300E03B460CAA03A910A877
:101C5000FFF7C2FE11993D46109800260E9121789B
:101C600009070BD40E99A94200DA0D4603A9012DEC
:101C700004DD4A19203AD27F302A06D0B84201DA70
:101C8000011D04DA012100910FE06D1EEFE700282D
:101C900002DC86192D1A03E0411CA94200DD0D4625
:101CA000801B401C00900120C0070B90207800078B
:101CB00005D40098A84202DB0020C043009069468A
:101CC0000020C8720B98012102AF0337C907884270
:101CD00025D0022010902B2011900B9800280BDAB1
:101CE00040420B902D20119006E00B9800F039FA3D
:101CF00030317F1E0B9039701099481E00291090CA
:101D0000F3DC0B980028F0D111987F1E38702088E2
:101D1000000501D5452000E065207F1E387001A830
:101D2000C01BC01D0B900F98002800D00120411946
:101D30000098C01709180B980818A169081A401EC6
:101D4000A0612078C00602D42046FFF706FB0F985A
:101D5000002805D06268A1689047206A401C206274
:101D60002078C00625D52046FFF7F7FA21E0002E9F
:101D700007DB0E98B04204DD03A86268805DA168AD
:101D800002E06268A16830209047206A761C401CFF
:101D900020620098401E002800900AD100F0A4FAAA
:101DA000C06862680168405CA1689047206A401C76
:101DB000206228466D1E0028D9DC07E0626838786A
:101DC000A1687F1C9047206A401C20620B99481E26
:101DD00000290B90F2DC2046FFF7D5FA032042E6FB
:101DE00001FCFFFF104D0000E1DFFFFFD21DF0B549
:101DF00004460D46D0088DB0C000466807683146DD
:101E0000384606F07BF80246F00F01D02D2307E09C
:101E10002068810701D52B2302E04007C00F430152
:101E20006846002B037001D0012000E00020032A47
:101E30000A9001D0072A04DB2946204600F058FA10
:101E40002DE12078800601D40D2500E0E5697000C1
:101E5000400D0D2D01904BDA300D00210B900846FE
:101E60000020C046032189050840002E05DA8200C3
:101E70008018C20F1018401008408015012801DD9D
:101E80000020C043A9000023182906D39C460A4617
:101E90000123183A1B07D34003E001221205CA4070
:101EA00094460C31202902D33A46203900E03246CC
:101EB0008A40002802DD002A06D119E0002817D147
:101EC0000121C9078A4213D3194663467F185E4130
:101ED000002806D10120C007824202D1084687436C
:101EE0009E430B98310D814202D00198401C019015
:101EF0002088000502D57149794402E06F49794490
:101F000019396B460A9830221A540A980A7C401CE8
:101F10001A54401C0A900198002801DC302000E08F
:101F200031201872019A0120002A02D0644BD21885
:101F300004E072003A4302D0614A521C0192002D23
:101F400002DC2278120703D56A462E205072022046
:101F50000022864694460CE032033601120F6D1EB5
:101F60008B5C02AA13546246521C401C9446052AFC
:101F700001DA002DF0DC002202AE08E03B0F3F0149
:101F8000CB5C521C6D1E3354401C082A01DA002D14
:101F9000F4DC23689A0601D511E0401E704504DD8B
:101FA0003218203AD27F302AF7D0002807DD3218C5
:101FB000203AD27F2E2A02D11A0700D4401E002DCB
:101FC00003DD3E223254401C6D1E497C3154019980
:101FD000401C002906DA2D21471C3154019840424B
:101FE000019003E02B21471C315401987D21C90049
:101FF000884206DBFEF764FA3030F0557F1C019111
:1020000001E0642808DB01986421FEF759FA3030BA
:10201000F0557F1C019101E00A2806DB01980A2196
:10202000FEF74EFA3030F0557F1C01980A21FEF77A
:1020300047FA3031F1550A98A1697F1C7A191018B6
:10204000081AA0612078C00602D42046FFF785F95F
:10205000216A6E460A980818206204E062683078A7
:10206000A168761C90470A98401E0A90401CF5D142
:102070002078C00602D52046FFF76FF902AE09E0CE
:102080003078761C3E280DD06268A1689047206A9F
:10209000401C20627F1EF3D22046FFF774F90DB07A
:1020A0000320F0BD206A4019206203E06268A16845
:1020B000302090476D1EEDD3F8E700003866000031
:1020C00001FCFFFF10B54369002B02D0C046C0469B
:1020D00001E0FFF77BF9012010BD127801462431A1
:1020E0000A7000224A700122ECE711680022D243F4
:1020F000E8E710B54369002B02D0C046C04601E0B6
:10210000FFF7F6F9012010BD1288014624318284C0
:102110000022C2840122ECE711680022D243E8E7E2
:10212000F8B516460C46054600F0D6F80368FF20C1
:102130000230C05C012807D0FF2C0FD8185D0028A2
:102140000CD001202C70F8BDFF33324621460833F5
:102150001868C71828460023B847F8BD0020C043B8
:10216000F8BD01468008081A02091018020A101862
:10217000020C1018C008820012185200891A01E0DF
:10218000401C0A390A29FBD270470000F8B5264CDA
:102190004E00069DA6420AD8A64201D1002806D1CB
:1021A0005E00A64203D8A6420AD1002A08D00D2418
:1021B0002404254233D02946002000F011FCF8BD4C
:1021C0000C461C4311D4994207D0C81A02D3EFF32E
:1021D0000080F8BDEFF30080F8BD801A02D3EFF362
:1021E0000080F8BDEFF30080F8BD09242407E50066
:1021F0008B4207D0581A02D3EFF3008006E0EFF3CA
:10220000008007E0101A03D3EFF30080A04303E03F
:10221000EFF30080A043284380F30088F8BD0095C9
:1022200000F0F6FBF8BD00000000E0FF10B5FF2352
:102230001B0644009C421DD84C009C421AD8034601
:10224000124A0B4307D4401A02D3EFF3008010BDAB
:10225000EFF3008010BD081A03D3EFF30080904322
:1022600005E0EFF3008001219043C907084380F3A4
:10227000008810BD0D231B041A4204D01146002013
:1022800000F0AEFB10BD00F0CDFB10BD00000090D3
:1022900000487047E00020207546FFF7F9FFAE4682
:1022A000050069465346C008C000854618B020B5F1
:1022B000FEF70EF860BCB64600260027C0C5C0C5B4
:1022C000C0C5C0C5C0C5C0C5C0C5C0C5403D490822
:1022D00049008D467047000010B500F005F8001D5C
:1022E00010BD00BF215D00000048704700012020A4
:1022F000F8B51F46044601230068DB0203260146A9
:102300001840072A05DB002801D017A506E017A50D
:1023100004E0002801D016A500E016A51020814396
:102320002160A069C01E002FA06101D0401EA061E5
:102330002046FFF712F8002F09D038466268A168DE
:102340009047206A401C2062C01C206206E0206A80
:10235000FAE762682878A1686D1C9047761EF8D26B
:102360002046FFF710F8F8BD4E414E006E616E003A
:10237000494E4600696E6600F7B516468AB0334886
:1023800078446C4603467C33C06F5A689B680DC422
:102390002E487844763003AC0DC80DC43720C001F8
:1023A000081837211B30FEF78BF805460C46803D98
:1023B0001B3C02D56442012000E000200027099068
:1023C00010E0E0070CD00C202049784379443246D5
:1023D0004C3941186846012300F054FA6B4607C394
:1023E00064107F1C002CECD1184F7F442E3F16E068
:1023F000E80712D02001C0190EC806910893079271
:102400000068F04201D1981908903246012306A9CC
:1024100003A800F037FA03AB07C36D10641C002D4E
:10242000E6D10998002806D032466946012303A860
:1024300000F07EFA05E001233246694603A800F069
:1024400021FA0A9B07C30DB0F0BD0000C461000073
:10245000034640000A4610B5400D0BD00121C907C4
:102460000F24A40200191C0364082143540D2143C6
:10247000D20207E000210120F2E7D40F49002143F6
:102480005200401E0029F8DADB0FDB07184310BDAD
:10249000FFB50D46144685B04868516805F016FD35
:1024A00000910190A868A16805F010FD02910390C9
:1024B000A868616805F00AFD029A12188242029229
:1024C00001D2012000E00020019A0B18D218002848
:1024D000019202D08A4202D903E08A4201D201204D
:1024E00000E000200099081800906868A16805F0D5
:1024F000EDFC029A12188242029201D2012000E001
:102500000020019A0B18D2180028019202D08A42AA
:1025100002D903E08A4201D2012000E000200099A4
:1025200008180090286821684000490040084908C0
:102530004018FA49471814E001994000C90F0843B0
:102540000090019802994000C90F08430190029839
:1025500003994000C90F08430290039840007F1E72
:10256000039000980028E7DA0898002801D0EC4E84
:1025700000E00026B74201DA012000E00020002838
:1025800004902AD0F71BF806C00E15D0029B20211C
:10259000091A039A8B401A430392029A019BC24084
:1025A0008B401A430292019A009BC2408B400099D3
:1025B0001A430192C14000917B110DD06F46032058
:1025C000C11A03D500218200B95003E08A008100BE
:1025D000BA587A50401EF3D537460398029900281E
:1025E00000D00120014308980291002808460CD031
:1025F000002800D001200199019A490508430121D2
:10260000D20AC902D202019200E001210E9B0122EE
:10261000D207012B02D0002B03D013E0002807D1F2
:1026200020E0904204D890420CD1019B0B4209D08B
:10263000019B5918019105D10099491C009101D1C4
:102640007F1C009200280DD0102108460020C046B3
:102650000498002806D00F98002803D008210846C7
:102660000020C04628682168019B009A4840C10F9D
:102670000598C90739430EC009B0F0BDFFB587B052
:10268000099A08980899536892684068896896463C
:102690000022039317469446089A12685300099A39
:1026A0005B081268520052089A1A9E4BD4180A9A74
:1026B000002A01D0352200E04022069200220123A8
:1026C00015460492DB07059324E0002D05D17546DD
:1026D0000346039E4D1BB34109D375466646039BD3
:1026E000491B049D9841059B7519AC465F416346A3
:1026F0003B4308D0059B049EDD0776082E435B080C
:102700000496059301E0521E641EC50FED0749189B
:102710004041521C069B9A42D7DB002D04D17546DE
:10272000039A6B1A824101D203200CE0039A0B46F4
:102730006B404240134303D0014303D0012002E029
:10274000022000E0002061460191002100970291E3
:102750000A99002905D0614640020143704B01915E
:1027600002E08007002302909C4201DA012000E091
:10277000002007003AD01A1BD006C00E15D0029DCB
:102780002021019C091AC5408C402543029C8C40A5
:1027900000D001242543019C0295009DC4408D403A
:1027A00000992C430194C140009154111DD06D46F5
:1027B0000221002202290CD10320001B07E000287F
:1027C00004DB8600AE59002E00D00122401C0328F5
:1027D000F5DB081B02D588002A5004E08000285849
:1027E00010438A00A850491EE3D51C460A980028C9
:1027F00002980CD0002800D001200199019A4905C7
:1028000008430121D20AC902D202019200E001214B
:10281000109B0122D207012B02D0002B03D013E022
:10282000002807D11FE0904204D890420CD1019BB0
:102830000B4209D0019B5918019105D10099491CFF
:10284000009101D1641C009200280CD01021084690
:102850000020C046002F06D01198002803D0082180
:1028600008460020C04608980999019A009B006814
:1028700009684840C10F0798C907214382600AC010
:102880000BB0F0BD00B585B0019300920A46014639
:10289000002302A8FFF7FCFD02A807C805B000BD91
:1028A000FFB50A461F4685B00799019301230091A1
:1028B000014602A8FFF7ECFD02990398049ECA0F97
:1028C0004900D20700920F22490892028C1A002177
:1028D000002800DB0C46450013486D08844214D3E1
:1028E000079A002A04DA441E0026104DF64302E03F
:1028F00004460D460E46102108460020C046002F13
:1029000003D0042108460020C0462005E90A0843F8
:10291000009908436905F20A1143ADE602C0FFFFC2
:10292000013C0000FF3F0000FF070000FFFFFF7FAA
:1029300000B585B0019300920A460146002302A823
:10294000FFF79CFE02A807C8A8E7FFB50A461F4686
:1029500085B00799019301230091014602A8FFF772
:102960008DFE02990398049ECA0F4900D207009277
:102970000F22490892028C1A0021002800DB0C4625
:10298000450011486D08844214D3079A002A04DADE
:10299000441E00260D4DF64302E004460D460E4649
:1029A000102108460020C046002F03D0042108460D
:1029B0000020C0462005E90A08430099084369053C
:1029C000F20A114358E60000FF070000FFFFFF7FF7
:1029D00010B50446C046C0462046FDF74FFC10BD6A
:1029E000C80212D54803400F002804D0C803C043D2
:1029F000012188407047EFF30080000100090321A6
:102A00000907084380F300887047002070470000E2
:102A100010B500200249029A00F00CF810BD000029
:102A20000000F87F10B5024800F004F810BD000067
:102A30000000C07F10B50C461107090F092904D00A
:102A40000A290AD008290CD104E011460820FFF712
:102A5000C7FF06E0510606D501E0510601D5012069
:102A6000C007214610BDD10607D501010909CC08D0
:102A70004907000E0006044309E0410F2002490700
:102A8000000A0143200E00061D22D14101430846E1
:102A9000E7E7000081B0009000990120C20266487B
:102AA000885001B07047C04681B000900099674AD5
:102AB0006748885001B0704783B00290019100923E
:102AC00002980199084300990843A149086003B09E
:102AD0007047C0469E480068072108407047C046BE
:102AE00082B001900199881E001F00BFFCD20090A7
:102AF00002B0704784B0039002910192039800687D
:102B00000090009801998843009000980299019ADA
:102B1000114008430399086004B0704784B00390E3
:102B200002910192039800680090009801998843EF
:102B3000009000980299019A114008430399086097
:102B400004B0704784B0039002910192039800682A
:102B50000090009801998843009000980299019A8A
:102B6000114008430399086004B0704784B0039093
:102B7000029101920398006800900098019988439F
:102B8000009000980299019A114008430399086047
:102B900004B0704781B0009000990120C20226481D
:102BA000885001B07047C04681B000900099012064
:102BB000C2022148885001B07047C04610B584B0A9
:102BC000069C039002910192009302980199084398
:102BD000009908430699084303490843039989006B
:102BE000074A885004B010BD8100040081B00090F5
:102BF00000988100024A0020885001B07047C0460A
:102C00000480424081B000900099104A10488850DA
:102C100001B0704781B0009000990C4A0C48885070
:102C200001B0704781B0009000990120C2020248B3
:102C3000885001B07047C0460100002681B0009066
:102C40000099024A0248885001B070470408000009
:102C5000030000B180B584B0039002910192039902
:102C600002980143019801433F200204CE48FFF738
:102C70007DFF04B080BDC04680B586B0059000F0F1
:102C800087F8FFE700F0B8F801218903084088427F
:102C900001D0FFE7F6E70598417E2948039001221D
:102CA0000192FFF763FF05982021415C25480290BF
:102CB0000322FFF75BFFFFF70DFF01460198049128
:102CC00000210422FFF7F8FE02980599496A096875
:102CD0001D4A11600599496A49681C4A11600499A6
:102CE0001B4A11600599C9694906490C7F221202E5
:102CF000FFF73CFF0398059A11680907090B536811
:102D00001B039BB2C91893681B071B0DC918D36816
:102D100019431369194353691943127E11430D4A2C
:102D2000FFF724FF00F05CF8FFE700F065F80121F1
:102D300049020840884201D0FFE7F6E706B080BDAF
:102D400020010B4024010B4028010B402C010B40BB
:102D50000013404072FF0F007049086801221207FB
:102D6000904308607047C0465F490868012290435D
:102D7000086070475C49086801229043086070470A
:102D80005949086801221202904308607047C04602
:102D90005549086801221202904308607047C046F6
:102DA0005E49086801221207104308607047C04658
:102DB000A149086801221203104308607047C04609
:102DC0000249086810221043086070473C010B401C
:102DD0004549086801221202104308607047C04646
:102DE0004149086801221202104308607047C0463A
:102DF000034800687047C046014800687047C046F5
:102E000004020B4080B5FFF7F3FF0121490608409B
:102E1000400E80BD014800687047C04650010B401D
:102E200081B001466846017000780249086001B02F
:102E30007047C04608030B4080B582B001900199ED
:102E40001F2002065848FFF769FE02B080BDC04649
:102E500080B582B0014601A8018001880F200202DE
:102E60007548FFF75BFE02B080BDC04680B582B0FA
:102E7000014601A80170007801030F2002034A48AF
:102E8000FFF74CFE02B080BD80B586B005AB019364
:102E90001880049103A802900270FFF76BFF01985D
:102EA000008800F023F8049800F02EF802980E4AEB
:102EB00011680123194311600078C00700280DD064
:102EC000FFE7FFF76DFFFFE7FFF796FF012109021C
:102ED0000840884201D0FFE7F6E702E0FFF73CFF39
:102EE000FFE706B080BDC04608010B4080B582B048
:102EF000014601A801800188032002030748FFF76B
:102F000035FE02B080BDC04680B582B00190019907
:102F10000248FF22FFF72AFE02B080BD10010B40DD
:102F200081B001466846017000780249086001B02E
:102F30007047C0460C010B4080B582B001900199EA
:102F40000878C007C00D89784118FF2204320B4869
:102F5000FFF70CFE0A490B48086001984078C0074B
:102F6000002806D0FFE705490868102210430860D2
:102F7000FFE703490448086002B080BD14010B401C
:102F800014030B40010000910200009180B582B053
:102F9000014601A801800188012042020248FFF792
:102FA000BDFD02B080BDC04638010B4080B582B087
:102FB000014601A80170017802480322FFF7AEFD27
:102FC00002B080BD00010B4080B582B0014601A86F
:102FD0000170017818483022FFF7A0FD02B080BDD3
:102FE00001490248086070472C030B400100000EA5
:102FF00080B582B0014601A801700078FFF790FF0C
:10300000FFE7FFF7F9FE012149050840884201D09A
:10301000FFE7F6E708490868012212041043086038
:10302000FFE7FFF7E9FE10210840102801D0FFE775
:10303000F7E702B080BDC04604010B4009490868AB
:10304000052210430860704781B0009005490420B4
:1030500008600098401E0449086004490020086088
:1030600001B0704710E000E014E000E018E000E07C
:1030700081B0009000990120C2028748885001B0B9
:103080007047C04681B0009000998C4A41488850F2
:1030900001B0704782B00190009100980199024AF6
:1030A000885002B07047C0464810000081B00090C0
:1030B000009911200202885801239843885001B0DA
:1030C000704781B0009000991120020288580123B6
:1030D0001843885001B0704781B0009000990120DA
:1030E000C2026D48885001B07047C04681B0009060
:1030F0000098812149014058C0B201B070470000DA
:1031000080B582B0019000910198FFF7CFFF019840
:10311000112109024018009A118893781943928866
:103120001143084AFFF70EFD01982D494018009AF7
:103130009179D3791943127A11437E22FFF702FD68
:1031400002B080BD1867020081B000900098474926
:1031500040580121084001B07047C04681B000903E
:1031600000984249405804210840800801B0704747
:1031700081B00090009802494058C0B201B0704739
:103180002411000081B0009000994C4A01488850F9
:1031900001B07047030000B180B584B00390029184
:1031A000019203980B49401802990B4AFFF7A2FCC1
:1031B00003980A49401801993F22FFF79BFC0399A5
:1031C000074A8818895801221140FFF793FC04B080
:1031D00080BDC04610110000FFFF00001411000068
:1031E0000411000082B001900091009800780199CC
:1031F000044A8850009840780199012212038850AF
:1032000002B070470810000080B582B001900091B4
:10321000019811210902401800990322D203FFF7F7
:1032200069FC02B080BD82B00190684601700078F0
:10323000019989225201885002B0704782B00190F2
:103240000091009908784A78104349880843019909
:1032500011221202885000994868896809040843BD
:103260000199024A885002B07047C0460811000018
:1032700081B0009000990120C2020748885001B037
:103280007047C04681B0009000990120C2020248F8
:10329000885001B07047C0460100002681B0009000
:1032A0000099064A0648885001B0704781B00090E6
:1032B0000099024A0248885001B070470408000093
:1032C000010000B180B584B003A90020087002A9F4
:1032D00008703B48006881214901405801900198DD
:1032E000002830D0FFE70198411E03A80170007844
:1032F0000F280EDCFFE7324800683249405803A926
:1033000009780907C90EC8400321084002A90870BE
:103310000EE02B4800689D214901405803A9097817
:103320000907C90EC8400321084002A90870FFE739
:1033300003A8007883002448C25802A800782349D3
:10334000C95890473AE01E484068812149014058D9
:1033500001900198002830D0FFE70198411E03A892
:10336000017000780F280EDCFFE71548406815490A
:10337000405803A909780907C90EC840032108402D
:1033800002A908700EE00E4840689D21490140588E
:1033900003A909780907C90EC8400321084002A9FA
:1033A0000870FFE703A8007883000748C25802A806
:1033B00000780649C9589047FFE7FFE704B080BD91
:1033C0008000202090130000000020208001202099
:1033D00080B582B00920FFF709FC0A20FFF706FC40
:1033E0000720FFF703FC0820FFF700FC00210091F5
:1033F00001200204C3042720FFF7E0FB02B080BDD8
:1034000080B586B005A9002001900870FFF714FD73
:103410000198012211059204FFF71CFCFFF7E0FD63
:10342000FFE7FFF7EFFC002801D1FFE7F9E7FFF71F
:10343000F1FC03900120010542040020FFF70AFC83
:10344000FFF7CEFDFFE7FFF7DDFC002801D1FFE726
:10345000F9E7FFF7DFFC049003997D20C0004843A3
:103460000499FDF723F802900298FDF708FD002269
:103470000D4B04F064FD00280FD1FFE70298FDF723
:10348000FEFC0022D243094B04F04EFD002804D17B
:10349000FFE705A901200870FFE705A800780121D2
:1034A000084006B080BDC04600289F40FF579F409F
:1034B00080B582B000200090FFF7B2FC012001909F
:1034C0004002FFF7C5FC0098FFF770FDFFF74CFCCA
:1034D000FFF756FC019A032000030A21FFF7D4FCF2
:1034E0001648FFF7C9FBFFE7FFF78AFF00280FD157
:1034F000FFE7FFF745FCFFF76BFCFFE7FFF778FC02
:10350000012149020840884201D0FFE7F6E7EBE7D6
:103510001020FFF759FD0920FFF7A8FC0848FFF726
:103520000BFDFFF745FCFFF74BFC01204002FFF7C6
:103530002DFD0020FFF75CFD02B080BD0888000073
:103540000488000080B55020FFF77EFDFFF776FD70
:1035500080BD000080B502491848FFF76FFE80BDAE
:103560003088000080B500F009F8FFF731FFFFF761
:103570009FFFFFF7EFFFFFF7E5FF80BD80B584B049
:103580000C480190FFF746FB0B480290FFF742FB07
:103590000A480390FFF78AFE0198FFF705FB02989F
:1035A000FFF702FB0398FFF76DFE1020FFF798FA74
:1035B00004B080BD00000A4000200A400000034023
:1035C00080B51B4802681B4801680020904780BDF9
:1035D00080B517484268174841680020904780BD71
:1035E00080B513488268134881680020904780BDE9
:1035F00080B50F4882690F4881690020904780BDDF
:1036000080B50B48C2680B48C1680020904780BD58
:1036100080B507480269074801690020904780BDCE
:1036200080B503484269034841690020904780BD46
:103630005C0220208C00202080B582B01148FFF76A
:1036400055FD014601910B280BD0FFE701980C288E
:1036500010D1FFE74B4802684B48016802209047B1
:1036600009E048480268484801680120904700F096
:10367000D1FD00E0FFE7044801680248FFF70AFDBA
:1036800002B080BD008010403090104080B582B004
:103690001248FFF72BFD014601910B280BD0FFE7E5
:1036A00001980C2811D1FFE7364842683648416836
:1036B000022090470AE033484268334841680120BD
:1036C000904707480068804700E0FFE70548016829
:1036D0000248FFF7DFFC02B080BDC046000010408A
:1036E000D40020203010104080B582B01048FFF781
:1036F000FDFC014601910B280BD0FFE701980C2837
:103700000ED1FFE71F4882681F488168022090475A
:1037100007E01C4882681C4881680120904700E04F
:10372000FFE7044801680248FFF7B4FC02B080BD1F
:10373000002010403030104080B582B01048FFF7B4
:10374000D5FC014601910B280BD0FFE701980C280E
:103750000ED1FFE70B48C2680B48C16802209047B2
:1037600007E00848C2680848C1680120904700E0A7
:10377000FFE7064801680248FFF78CFC02B080BDF5
:1037800000005040AC002020880220203010504023
:1037900081B001466846017000214056002809D4D6
:1037A000FFE7684601781F20014001208840024958
:1037B0000860FFE701B0704700E100E081B00090D1
:1037C00001B0704710B58AB009AC207008A801702C
:1037D00007A90A7006A90B70007810280AD1FFE724
:1037E00008A8017806A8007801400120102902905D
:1037F00014D0FFE708A801780020002901900AD121
:10380000FFE708A8007806A9097808401038411E8B
:1038100088410190FFE701980290FFE7029801219B
:1038200008403A49E72200F0A1FC09A801784909BB
:1038300005AA117000781F21084004A9087007A884
:1038400000780390039832490843039006A8007853
:10385000401E009013284BD80098810001A04058CA
:103860008746C046B5380000BB380000BD380000B0
:10387000C9380000F1380000F1380000F1380000CC
:10388000F1380000F1380000F1380000F138000094
:10389000F1380000F1380000F1380000F138000084
:1038A000F1380000D5380000D7380000E3380000B8
:1038B000E5380000002003901AE019E00398012188
:1038C00009040843039013E00398012149040843C5
:1038D00003900DE00CE00398012149060843039092
:1038E00006E005E003980121490608430390FFE73D
:1038F000039805A90978490104AA12788A1805498C
:10390000895C8900044A88500AB010BD958C00007B
:10391000800004003C8800000480424081B0009098
:10392000009900200860009948600099886000991B
:10393000C8600099086101B0704780B582B00190FD
:103940000198006800900198FFF7E8FF009801993E
:10395000086002B080BD000080B582B00190009187
:10396000FFE70098164904F018FB002806D1FFE78E
:103970000098164904F0C0FB0090F2E7FFE70098BA
:10398000104904F0F4FA002806D1FFE700980E4928
:1039900004F0B2FB0090F2E700980199096804F086
:1039A000DBFA002806D1FFE701990020C8600199E1
:1039B0008860FFE700980199086002B080BDC046AA
:1039C00000003443000034C30000B4430000B4C31B
:1039D00010B590B0159C149C139C129C0F900E91E6
:1039E0000D920C930F9800680E9904F0A1FC0B90B7
:1039F0000B9804F041FA0F9948600F9A08925068AA
:103A00001599D268079204F03BFC079904F074FB07
:103A10000899C8600F98C068149901F026FA0F99A8
:103A2000C8600F994868896804F082FC099015986D
:103A30001D4904F0B2FA002803D1FFE7159806905B
:103A400002E01A480690FFE709980699FDF768FB1F
:103A50000A900F99486888600D9802900F99059117
:103A6000486801900C98C96804F00AFC0199024664
:103A70000298039204F004FC039904F03DFB0490C7
:103A800012980A9904F0FCFB049904F035FB05999F
:103A900008610F980069139901F0E7F90F9908611F
:103AA0000F98006910B010BD6F12833A0AD7233CFB
:103AB00081B000900099087800024978401800B25F
:103AC00001B0704780B582B0FFE70320694604F07B
:103AD000BBF8002800D111E168460078312807D1F1
:103AE000FFE78B490020087001A90120087009E157
:103AF00068460078302807D1FFE785490020087024
:103B000001A9FF200870FDE068460078682805D00C
:103B1000FFE768460078482807D1FFE77C49002086
:103B2000087001A904200870ECE06846007872284B
:103B300005D0FFE768460078522807D1FFE77449AF
:103B40000020087001A902200870DBE068460078B8
:103B5000642805D0FFE768460078442807D1FFE7CE
:103B60006B490020087001A903200870CAE068466C
:103B700000783F2807D1FFE765490020087001A9B8
:103B800005200870BEE0684600780D2805D0FFE7E4
:103B9000684600780A2846D1FFE75D48007800288B
:103BA00001D1FFE791E75A4A13785A480021C154DE
:103BB00011705949FCF736FC002804D1FFE701A930
:103BC000012008709EE053485449FCF72BFC002864
:103BD00004D1FFE701A9FF20087093E04D48504948
:103BE000FCF720FC002804D1FFE701A9022008709F
:103BF00088E048484B49FCF715FC002804D1FFE752
:103C000001A9032008707DE042484749FCF70AFCFF
:103C1000002804D1FFE701A90520087072E043489D
:103C200000F093F869E03A4800780E2860D8FFE782
:103C30006846007861280ADBFFE7684600787A2842
:103C400005DCFFE70098203869460870FFE7009A16
:103C50002F490B782F48C2540A78521C0A700A78F0
:103C6000002181542C49FCF7DDFB002807D1FFE738
:103C700027490020087001A90120087042E025486A
:103C80002649FCF7CFFB002807D1FFE72049002099
:103C9000087001A9FF20087034E01E482049FCF795
:103CA000C1FB002807D1FFE719490020087001A9CE
:103CB0000220087026E017481A49FCF7B3FB0028D9
:103CC00007D1FFE712490020087001A903200870FE
:103CD00018E010481449FCF7A5FB002807D1FFE7BE
:103CE0000B490020087001A9052008700AE003E0D4
:103CF000074900200870FFE7FFE7E6E601A900207A
:103D00000870FFE7002101A8405602B080BDC04600
:103D10005001202040012020B08B00007A8B000051
:103D2000A08B0000B68B0000758B0000118A00008C
:103D300080B582B001900199012003F0B1FF019993
:103D4000032003F0ADFF02B080BD80B582B00190CA
:103D50000199012003F0A4FF0199032003F0A0FFC3
:103D600002B080BD80B584B003A90870212000F0A6
:103D700035F90020019000F031F97F2000F02EF994
:103D8000222000F02BF9019800F028F9072000F01C
:103D900025F99A48009003F08FF90098017A4906B6
:103DA000090E03F0F7F80098402103F0F3F80198AA
:103DB00002A90880FFE702A800880A4988420BDCB4
:103DC000FFE703A801788D4803F0E4F8FFE70298C5
:103DD000401C02A90880EEE7884803F0D9F904B036
:103DE00080BDC046FF03000080B584B01C20009059
:103DF00082483C210A221F2302F00AFF642003F0BC
:103E000049FCAE2000F0EAF8D52000F0E7F8802069
:103E100000F0E4F8A82000F0E1F83F2000F0DEF820
:103E2000D32000F0DBF80020029000F0D7F840200B
:103E3000039000F0D3F88D2000F0D0F8142000F0AB
:103E4000CDF8202000F0CAF8029800F0C7F8A120B1
:103E500000F0C4F8C82000F0C1F8DA2000F0BEF885
:103E6000122000F0BBF8812000F0B8F87F2000F0AD
:103E7000B5F8D92000F0B2F8F12000F0AFF8DB205F
:103E800000F0ACF8039800F0A9F8A42000F0A6F820
:103E9000A62000F0A3F8AF2000F0A0F8AA20FFF7BA
:103EA00061FF04B080BDC04680B58CB00BAA0592FE
:103EB00010700A9109A900200490087008A90870E0
:103EC00007A90870212000F089F8049800F086F80E
:103ED0007F2000F083F8222000F080F80598007819
:103EE00000F07CF80598007800F078F843480690D8
:103EF00003F0E2F80698017A4906090E03F04AF841
:103F00000698402103F046F8FFE70A990020095679
:103F1000002903900DD0FFE709A8017801200022B5
:103F200001927A29029001DB019802900298039095
:103F3000FFE70398C007002839D0FFE70A9800215F
:103F40004056202806DBFFE70A98002140567F28CC
:103F500004DBFFE708A90020087005E00A98007854
:103F6000203808A90870FFE707A900200870FFE7BC
:103F700007A80078052816DCFFE708A800780621C6
:103F800041431548401807A90978415C1B4803F0D4
:103F900001F80998401C09A90870FFE70798401C20
:103FA00007A90870E4E70A98401C0A90ADE7FFE70C
:103FB00009A800787F2809DCFFE71048002102F0FB
:103FC000E9FF0998401C09A90870F1E70B4803F0C4
:103FD000DFF80CB080BDC046DC85000080B582B043
:103FE00001A90870694600200870019848700348CC
:103FF000022203F0BBF902B080BDC0464C02202073
:1040000080B582B0019000F00BF8FFF7ABFA00F03A
:104010002BFF03F03DFB00F081FE02B080BD0000ED
:1040200080B592B040480090FEF7ECFD3F4801900B
:10403000FEF7E8FD0098FEF7ADFD0198FEF7AAFD3A
:104040003B480290FFF71EF83A480390FFF71AF832
:104050000298FFF70DF80398FFF70AF83648049026
:10406000FFF710F835480590FFF70CF83448069034
:10407000FFF708F833480790FFF704F83248089034
:10408000FFF700F80498FEF7F3FF0598FEF7F0FF3E
:104090000698FEF7EDFF0798FEF7EAFF0898FEF78F
:1040A000E7FF2A480990FFF76DF829480A90FFF7C3
:1040B00069F828480B90FFF765F827480C90FFF740
:1040C00061F80998FFF708F80A98FFF705F80B98C8
:1040D000FFF702F80C98FEF7FFFF20480D90FEF75F
:1040E000ADFD1F480E90FEF7A9FD0D98FEF79AFD55
:1040F0000E98FEF797FD012080070F90FEF7D4FC85
:1041000018481090FEF7D0FC0F98FEF7C3FC1098EB
:10411000FEF7C0FC14481190FFF7C0F81198FFF7A4
:10412000A7F812B080BDC04600000A4000200A4037
:104130000000864000208640004008400080864005
:1041400000A0864000000940000087400080104029
:104150000000104000201040000050400080464009
:1041600000A04640002000400000034080B584B01D
:1041700003AB187002910192FFE703A800780028B2
:1041800005D1FFE710480078002801D1FFE718E0CB
:104190000E480078002802D0FFE7FFE7FEE70B4952
:1041A0000878401C087000F04FFE00F0EBF9FFE7C4
:1041B0000299019A0648002300F03EF800F00AF840
:1041C000F6E704B080BDC046D80020205101202071
:1041D000478C000082B00020019000900190FFE722
:1041E0000198FF2813D8FFE700200090FFE7009810
:1041F000000C002806D1FFE700BFFFE70098401C35
:104200000090F4E7FFE70198401C0190E8E702B056
:104210007047000080B582B005490191002003F08D
:1042200013FD01990348012200F0A6FA02B080BDF7
:10423000680120206901202070B5FFB0A5B0A390CF
:10424000A291A192A0939EA9002008809DA9088018
:104250009CA9099108809BA908809AA90880A29826
:10426000FCF75CF809990880BF480088002804D052
:10427000FFE7BD4800698047FFE7BC480078002899
:1042800000D16DE1B8480088002800D145E1B6486A
:104290000890C3689AAA1188481C1080A39A00202D
:1042A0009847A2989F90A298FCF738F808999CAA82
:1042B000108048888979FCF7F9F89BA90880FFE706
:1042C0009F98411C9F9100214056002801D0FFE794
:1042D000F6E79DA900200880FFE79DA8018800203F
:1042E000012907900DDCFFE7002105919CA8415EA4
:1042F00001200029069001DA05980690069807909B
:10430000FFE70798C00700281AD0FFE79F98401ED4
:104310009F909F98002140562F2806D0FFE79F9836
:10432000002140565C2805D1FFE79D98401C9DA9BF
:104330000880FFE7FFE79C98401E9CA90880CCE717
:1043400000219CA8405E002809D4FFE79F98401CEC
:104350009F909F9A88495AA8FBF7CAFF11E09DA831
:104360000088002806D1FFE79F9A84495AA8FBF7E6
:10437000BFFF05E09F9A80495AA8FBF7B9FFFFE706
:10438000FFE79EA900200880FFE79EA80088049010
:104390005AA8FBF7C3FF00229BA9895EFCF786F8A9
:1043A00001460498491C884245D2FFE79DA9002098
:1043B0000880FFE79DA8008800229BA9895E8842AB
:1043C00024DAFFE75AA8FBF7A9FF9DA909889EAA4E
:1043D000138800249BAA125F5A438918884201D28D
:1043E000FFE713E09DA908889EAA138800249BAAD2
:1043F000125F5A4382185AA8805C0A884AA98854D6
:10440000FFE79D98401C9DA90880D3E79DA80188DF
:104410004AAA002050545449CB68CC799A994D1C33
:104420009AAE3580614389B29847FFE79E98401C59
:104430009EA90880A9E7A19A51495AA80390FBF7C1
:1044400057FF039A4848C368C1799A98441C9AADAB
:104450002C80484381B200209847A09800285BD068
:10446000FFE79EA900200880FFE79EA80088029031
:10447000A098FBF753FF00229BA9895EFCF716F872
:1044800001460298491C884245D2FFE79DA90020B9
:104490000880FFE79DA8008800229BA9895E8842CA
:1044A00024DAFFE7A098FBF739FF9DA909889EAAA7
:1044B000138800249BAA125F5A438918884201D2AC
:1044C000FFE713E0A0989DA90A889EAB1C880025F1
:1044D0009BAB5B5F6343D218805C0A884AA988540F
:1044E000FFE79D98401C9DA90880D3E79DA80188FF
:1044F0004AAA002050541C49CB68CC799A994D1C8B
:104500009AAE3580614389B29847FFE79E98401C78
:104510009EA90880A9E7FFE721E0012001020AA87F
:10452000FBF77BFF10488168A3988847A098002874
:1045300009D0FFE7A29AA19BA09800900D490AA874
:10454000FBF7D6FE06E0A29AA19B09490AA8FBF751
:10455000CFFEFFE7044881680AA88847FFE7FFE726
:104560007FB025B070BDC04654012020BC02202081
:10457000048C0000198C0000548C00005D8C00003D
:10458000328C0000704782B00190009102B07047F9
:10459000F0B589B0044608A8047007AC21700692F3
:1045A00005930178490904AA117001781F2211406E
:1045B00003AA0192117000210291007801220423C4
:1045C00000F0C8FA0199059809788A00394988509D
:1045D0000698002803D1FFE73748009002E00698CC
:1045E0000090FFE7009903A802789300334AD15066
:1045F00000780F2820DCFFE704AB187880003049F2
:104600000858304A8058029003A804782407E40E22
:104610000325A540029CAC43029407AC24780078A3
:104620000007C00E844002982043029002981B7835
:104630009B00C958885020E004AB187880002049BE
:1046400008589D2252018058029003A8047824073C
:10465000E40E0325A540029CAC43029407AC2478E9
:1046600000780007C00E8440029820430290029810
:104670001B789B00C9588850FFE703AB19780120CD
:1046800007468F4004AA11788C000D490D590E4E33
:10469000AC593C43AC511B7804469C4012789200C4
:1046A0008A580A4BD1582143D15000F0C1FB09B0C0
:1046B000F0BDC0468001202087450000000020207A
:1046C00080002020901300004810000028100000F7
:1046D00010B585B004900391039A049902918B79E7
:1046E000C8790002C318087A0404487A0006001941
:1046F000C0188018020E4A72020C0A728871000AF1
:10470000C871FFE7049901918A7CC87C0002821875
:10471000087D0304487D0006C01880188B79CA798B
:104720001202D2180B7A1B04497A0906C918891893
:1047300088421FD8FFE7049900918A7CC87C000258
:104740008218087D0304487D0006C01882188B7902
:10475000C8790002C318087A0404487A00060019D0
:10476000C018801A020E4A72020C0A728871000A7E
:10477000C871C7E705B010BD10B592B01190109187
:104780000F921198411E8841E449B022FFF7EEFCD8
:104790000EA9002008700D90FFE71098002804D1A2
:1047A000FFE70EA903200870B3E1119800780521F6
:1047B000084204D0FFE70EA904200870A9E111996E
:1047C00008780422104308700F9811998B7BCA7BDC
:1047D0001202D2180B7C1B04497C0906C9188918DF
:1047E000884200D98BE111990C918A7CC87C000227
:1047F0008218087D0304487D0006C01880188B7954
:10480000CA791202D2180B7A1B04497A0906C91810
:104810008918401A0D900F980D99884200D8E5E04C
:10482000119840780B90002809D0FFE70B980128D9
:1048300049D0FFE70B98022800D18DE0D5E011990F
:1048400009918A78C87800028218087903044879A7
:104850000006C01880188B79CA791202D2180B7A18
:104860001B04497A0906C9188918401810990D9A2D
:10487000FBF776FD11980D99FFF72AFF11990A9120
:104880008A78C878000282180879030448790006FB
:10489000C01880188B79CA791202D2180B7A1B04BF
:1048A000497A0906C9188918401810990D9BC9182A
:1048B0000F9AD21AFBF754FD11980F990D9A891A85
:1048C000FFF706FF91E0119907918A78C8780002F6
:1048D00082180879030448790006C01880188B797B
:1048E000CA791202D2180B7A1B04497A0906C91830
:1048F00089184900401810990D9A5200FBF730FDB5
:1049000011980D99FFF7E4FE119908918A78C878FB
:10491000000282180879030448790006C01880183C
:104920008B79CA791202D2180B7A1B04497A0906CC
:10493000C91889184900401810990D9B5A00891808
:104940000F9AD21A5200FBF70BFD11980F990D9A8E
:10495000891AFFF7BDFE48E0119905918A78C87859
:10496000000282180879030448790006C0188018EC
:104970008B79CA791202D2180B7A1B04497A09067C
:10498000C91889188900401810990D9A9200FBF7F0
:10499000E7FC11980D99FFF79BFE119906918A7813
:1049A000C878000282180879030448790006C01804
:1049B00080188B79CA791202D2180B7A1B04497AB3
:1049C0000906C91889188900401810990D9B9A008A
:1049D00089180F9AD21A9200FBF756FC11980F997A
:1049E0000D9A891AFFF774FEFFE772E0119840787C
:1049F0000490002808D0FFE70498012824D0FFE79E
:104A00000498022842D063E0119903918A78C8780B
:104A1000000282180879030448790006C01880183B
:104A20008B79CA791202D2180B7A1B04497A0906CB
:104A3000C9188918401810990F9AFBF791FC119822
:104A40000F99FFF745FE43E0119902918A78C878E3
:104A5000000282180879030448790006C0188018FB
:104A60008B79CA791202D2180B7A1B04497A09068B
:104A7000C91889184900401810990F9A5200FBF77D
:104A80006FFC11980F99FFF723FE21E01199019116
:104A90008A78C878000282180879030448790006E9
:104AA000C01880188B79CA791202D2180B7A1B04AD
:104AB000497A0906C91889188900401810990F9A6F
:104AC0009200FBF74DFC11980F99FFF701FEFFE7ED
:104AD000FFE70F9A119900918B7BC87B0002C318E6
:104AE000087C0404487C00060019C018801A020ED5
:104AF0004A74020C0A748873000AC87303E00EA992
:104B000005200870FFE711990878FB221040087013
:104B1000FFE70EA8007812B010BDC0466A8C0000F6
:104B200083B002A908700878420901A802700A78C7
:104B30001F210A4069460A7000788200BA488058EE
:104B40002722D20180580978C8400121084003B0CB
:104B50007047C04610B58AB009AC207008A8017033
:104B600007A90A7006A90B70007810280AD1FFE780
:104B700008A8017806A800780140012010290290B9
:104B800014D0FFE708A801780020002901900AD17D
:104B9000FFE708A8007806A9097808401038411EE8
:104BA00088410190FFE701980290FFE702980121F8
:104BB00008405249B522FFF7D9FA09A801784909F6
:104BC00005AA117000781F21084004A90870002070
:104BD000039003984A490843039006A80078401EB2
:104BE000009013284FD80098810001A040588746B4
:104BF000414C0000474C0000514C00005B4C000051
:104C0000874C0000874C0000874C0000874C000058
:104C1000874C0000874C0000874C0000874C000048
:104C2000874C0000874C0000874C0000874C000038
:104C3000654C00006F4C0000794C00007B4C00007C
:104C4000002003901FE003980121084303901AE01D
:104C500003982E490843039015E003982A49084316
:104C6000039010E003980121084303900BE00398A0
:104C700024490843039006E005E003980121490612
:104C800008430390FFE7039805A90978490104AA9E
:104C900012788A181E49895C89001E4A885008A823
:104CA0000078102812D1FFE704A80178012088407D
:104CB00005A909788A005C498958174A885009A8CB
:104CC000007807A9097800F043F8FFE706A8007804
:104CD000032806D1FFE709A80078002100F038F882
:104CE000FFE706A80078042806D1FFE709A80078A6
:104CF000012100F02DF8FFE70AB010BD958C0000EF
:104D00008000040001000002010002000100010017
:104D10003C88000004804240D012000080B584B07E
:104D20001021019100220292112303931046FFF7F4
:104D300011FF0199029A039B0120FFF70BFF0199D4
:104D4000029A039B0E20FFF705FF04B080BD000010
:104D500084B00A4603A9087002A802700A785209B2
:104D600001AB1A7009781F2211406A461170007851
:104D700000280ED0FFE7684600780123834001A891
:104D80000078810028484158284A8858184388509C
:104D90000EE0684600780123834001A80078810076
:104DA0002148415895204201885818438850FFE710
:104DB00004B0704710B583B002A9087008784209A2
:104DC00001A802700B781F2213406C4623700078F4
:104DD00083001548C0582523DB01C05809781140CD
:104DE000C840C00700280FD0FFE7684600780123BD
:104DF000834001A8007881000B484158952042016A
:104E00008858184388500DE0684600780123834095
:104E100001A80078810004484158044A8858184382
:104E20008850FFE703B010BD8000202090120000E2
:104E300080B582B0014601A8017000214056FEF7FE
:104E4000A7FC02B080BD000006480068002802D11F
:104E5000FFE772B6FFE703480168491C016000687C
:104E60007047C04610022020704780B584B0029081
:104E700001910298019903F090F8002803D1FFE70F
:104E80000198039012E0029801990122D207514043
:104E900003F06DF8002806D1FFE701980121C9074A
:104EA0004840039002E002980390FFE7039804B0A3
:104EB00080BD80B584B0029001910298019903F001
:104EC0006CF8002803D1FFE70198039012E00298E4
:104ED00001990122D207514003F049F8002806D178
:104EE000FFE701980121C9074840039002E00298BA
:104EF0000390FFE7039804B080BD82B0014601A88B
:104F000001800021405E002805D5FFE7019840425E
:104F100000B2009004E0002101A8405E0090FFE78D
:104F2000009800B202B0704781B000900099002054
:104F3000088000994880009908710099487100998B
:104F400088710099C87100990872009AF149D1607E
:104F50000099086101B0704780B584B0029001915A
:104F60000298019903F019F8002803D1FFE701988E
:104F7000039012E0029801990122D207514002F0F9
:104F8000F6FF002806D1FFE701980121C907484034
:104F9000039002E002980390FFE7039804B080BDFD
:104FA00083B0034602A803700191009200780128A3
:104FB00007D1FFE70199074808600099DA480860BF
:104FC00006E00199D8480860009902480860FFE7A8
:104FD00003B07047000040C180B594B013901291A7
:104FE0001192109312988078002834D1FFE713981B
:104FF000C079FE2805DCFFE71399C879401CC87109
:10500000FFE71398C079142818DCFFE713990320F1
:10501000087213980221405E002807D5FFE7119916
:10502000B94808601099B748086006E01199B5487A
:1050300008601099B4480860FFE708E0139904205D
:10504000087211990020086010990860FFE7139911
:105050000020086153E113990020C87112998988D2
:10506000139A51801299097889070029099008D06C
:10507000FFE712980078C02108404142484109905A
:10508000FFE70998012108400DA9087012980178DE
:1050900000200906890F0029089008D0FFE7129820
:1050A000007803210840414248410890FFE70898F2
:1050B000012108400CA908700DA8007800280ED026
:1050C000FFE713980079FE2805DCFFE713990879BC
:1050D000401C0871FFE713990020487119E00CA8E3
:1050E000007800280ED0FFE713984079FE2805DCF1
:1050F000FFE713994879401C4871FFE71399002096
:10510000087105E013990020087113994871FFE7B1
:10511000FFE713980079022807DBFFE713990120C6
:1051200008721399002088710CE0139840790228C6
:1051300007DBFFE71399022008721399002088719A
:10514000FFE7FFE71398007A012805D0FFE71398DF
:10515000007A022832D1FFE712980078C006800F4B
:10516000002814D0FFE713998879401C88711398A0
:10517000807903280ADBFFE713990020087213994E
:1051800088711298808813990880FFE703E01399CB
:1051900000208871FFE71398007A00280DD0FFE700
:1051A0001398007A1199109AFFF7FAFE13995E4846
:1051B000C86013995D480861A1E003E013990020DD
:1051C0000872FFE71298808813990988401A0FA97E
:1051D0000591088012980421405EFFF78EFE01467B
:1051E0000598079100210691405EFFF786FEFCF7C7
:1051F000A9F8464903F044F8FCF742F8069902463C
:10520000079882180EA80280405EFCF79BF8404980
:1052100003F036F83F4902F06FFF0B900B983E49C0
:1052200002F0A5FE002803D1FFE73B480B90FFE703
:105230000B981399C96802F09AFE002804D1FFE781
:105240000B981399C86015E013980490C0687F21EB
:10525000C90502F051FF0499C8601398C0680B9902
:1052600002F09BFE002804D1FFE70B981399C86059
:10527000FFE7FFE712980421405EFCF763F8019016
:10528000002103910FA8405EFCF75CF8234902F06F
:10529000F7FF014601980291214902F0F1FF0299BE
:1052A00002F02AFF0A900A981E49FFF755FE03995B
:1052B0000A900A9802F07EFE00280CD1FFE71398AE
:1052C000C068119908601398C0680A9903F030F813
:1052D000109908600BE01398C0680A9902F00CFF5F
:1052E000119908601398C06810990860FFE7129838
:1052F0008088139908800A9813990861FFE714B011
:1053000080BDC0460000B041000020C1CDCCCC3DE6
:10531000CDCCCCBD00008C420000F041CDCC4C3E49
:10532000B81E053E00005C420000E0410000204243
:1053300080B584B0392010210191002203921123FD
:105340000293FFF707FC0199029B039A3220FFF7B3
:1053500001FC0199029B039A3520FFF7FBFB039A9E
:10536000362003231146FFF7F5FB04B080BD000093
:1053700080B586B0059002A90020088005990870C4
:105380000599487004A90870FFE704A80078072869
:105390002EDCFFE704A8007800F048F8052002F0B2
:1053A0009DF93620FFF7BCFB411E4842414103A84E
:1053B00001700078002815D0FFE704A801780123C8
:1053C0008B40059A117819431170059A5178491C40
:1053D0005170007841001448415A0298401802A9BF
:1053E0000880FFE7FFE70498401C04A90870CCE799
:1053F00005994878421E9041887005988078002869
:105400000BD0FFE7002102A8405E05990191497881
:10541000FBF756F80199888003E005990020888001
:10542000FFE706B080BDC0467888000080B582B036
:10543000014601A801700178012001403920FFF7E1
:1054400087FC01988007C10F3220FFF781FC01988B
:105450004007C10F3520FFF77BFC02B080BD000084
:10546000F0B5FFB0A4B000202C90A290A1A90870C4
:10547000A0A908709FA908709EA908709DA908801E
:105480009CA908809B909A9099909890979096905C
:1054900095A9088094A90880939092907490739035
:1054A0007290719070907F21C9056F916EA90870FC
:1054B000FA48FEF7A5FDE120410201202A90F84AB2
:1054C000F84B02F031FB4B20C1010320F64AF74BA9
:1054D00002F02AFB2C9A30201021299111232B93C2
:1054E000FFF738FB29992A9A2B9B0720FFF732FBFD
:1054F00002F064F902F060FC8CA801F095FF86A828
:1055000001F092FFFFF714FF7FA8FFF70DFD7AA8C7
:10551000FEF704FA75A801F05DF9FEF765FC2C981A
:10552000FEF720FC2C98E249FEF7BEFCE14904207E
:10553000FEF7BAFCE048FEF708FC00F0B9FC642076
:1055400002F0A8F87D20800000F04AFB00F046FD44
:10555000002804D0FFE7D948FEF7F7FB0BE0D84856
:10556000FEF7F3FBD7490220FEF79EFCD649042044
:10557000FEF79AFCFFE771A870A96FAA00F06CFC17
:105580007198FBF7A3FD229023917098FBF79EFD85
:10559000249025916F98FBF799FD229A239B04464E
:1055A00024980D4625990395029401910090C749CE
:1055B0002EA82690FAF79CFE2698FEF7C6FB072039
:1055C000279000212891FFF7C3FBC82002F062F862
:1055D00027980121FFF7BCFB2898739073997AA84C
:1055E000FEF7BAF92898FEF7BDFB00F0F7FC00289B
:1055F00017D0FFE7B6490020FEF756FCB549022058
:10560000FEF752FCB4490420FEF74EFCB3490620D5
:10561000FEF74AFCB248FEF798FBB248FEF795FB4E
:1056200013E0B1490020FEF73FFCB0490220FEF72D
:105630003BFCAF490420FEF737FCAE490620FEF7DD
:1056400033FCAD48FEF781FBFFE7AC48FEF77DFB7E
:10565000AB48FEF77AFBAB48FEF777FB002002F081
:105660009FFB9990012002F09BFB9890FFE70A2096
:1056700002F010F89D98401C9DA90880FEF722FAC0
:1056800001469EA8017000214056002819D5FFE769
:105690009FA9002008709CA9088093909290729016
:1056A0006EA908707AA8FEF748F98CA801F0EFFE01
:1056B00086A801F0ECFE02F0FBF89348FEF745FBEC
:1056C000C0E000219EA84056012829D1FFE79FA9EC
:1056D0000120219008709CA90020209008809390C0
:1056E000929072906EA9087000F0B2FB739073995B
:1056F0007AA8FEF731F98CA801F0C9FE86A801F05E
:10570000C6FE209802F04CFB01462198999102F0C8
:1057100047FB989002F0CCF87C48FEF716FB90E02F
:1057200000219EA8405602282AD1FFE79FA9002009
:105730001E9008709CA908806EA9087093909290A2
:105740008CA801F0A4FE86A801F0A1FE02F0B0F83A
:105750006F48FEF7FAFA7D20800000F041FA1E98AB
:1057600000F068FC1E9873907AA81F90FEF7E5F889
:105770001F987399FEF7F0F86648FEF7E6FA5FE0C7
:1057800000219EA84056032822D1FFE775A801F00A
:105790001BF8FBF79BFC19901A917698FBF796FC87
:1057A0001B901C917798FBF791FC199A1A9B044661
:1057B0001B980D461C990395029401910090FA499B
:1057C0002EA81D90FAF794FD1D98FEF7BEFA36E05C
:1057D00000219EA84056042825D1FFE700F0FEFBDB
:1057E000002809D1FFE76EA90020087002F060F8D8
:1057F000EB48FEF7AAFA3AE79FA9002008709CA997
:1058000008806EA90120087000F022FB73907AA82E
:105810001890FEF792F818987399FEF79DF8E148F2
:10582000FEF793FA0AE000219EA84056052804D10D
:10583000FFE7DA48FEF789FAFFE7FFE7FFE7FFE750
:10584000FFE7FFE784A8FFF793FD9FA800780028F3
:1058500008D1FFE76EA80078002803D1FFE700F029
:1058600021FC02E000F0EEFDFFE700F0F1FA749099
:105870009FA8007800280CD0FFE79CA80088FF2193
:105880002C31884205DCFFE79C98401C9CA90880CD
:10589000FFE76EA80078002872D03DE000B4C40491
:1058A00026200100272001002220030023200300DE
:1058B000BB8B00001B8B0000988800009E890000B5
:1058C000DA880000378B0000578B0000C68A000082
:1058D000648B0000F58B0000038B0000A68B00009A
:1058E000BF8900000F8900007F8B0000468B0000FD
:1058F000298B0000908B00003F8900007289000016
:10590000AF880000FF890000348A00003E8A000052
:10591000238A0000F089000073997AA81790FEF797
:105920001BF817987499A14A039241221206029219
:105930009F4A01929F4A00929F4A0023FEF748F82F
:1059400072907B982D902D989C4902F026FB0028A0
:105950000ED1FFE72D98FF21890502F008FB0028F2
:1059600006D1FFE7002072907AA8FDF7E6FFFFE777
:1059700072980121C90748409390729892901AE05A
:105980009FA80078002807D0FFE79CA80088FF2187
:105990002C31884205DCFFE70020939092907290B2
:1059A00008E07FA884A993AA92ABFFF715FB00201B
:1059B0007290FFE7FFE793998CA801F076FD92992A
:1059C00086A801F072FD9DA80078C007002842D18A
:1059D000FFE70020149002F0E3F99B90012016905D
:1059E00002F0DEF99A909B999998401A97909A98AC
:1059F0009899401A96909B9899909A989890979910
:105A0000969A75A800F0F6FE1498979900907F205A
:105A1000C30513938CA86A4A129201F09BFD129A57
:105A2000139B0146149895AC15942180969900908B
:105A300086A801F08FFD0146149894AA11809499CC
:105A4000494209B201F010FF149A15991698895E1F
:105A500001F00AFFFFE7A198411CA1A8017000789E
:105A6000322857DBFFE7A1A90020109008703020F2
:105A7000FFF7A0F99398FBF703FC0F909298FBF7C0
:105A8000FFFB0F9A03464F492EA81190FAF730FCFE
:105A900011991098FEF708FA7498FBF717FB024665
:105AA00011980B464849FAF723FC11990220FEF79A
:105AB000FBF96EA80078002805D0FFE745490420CF
:105AC000FEF7F2F90FE09FA80078002805D0FFE765
:105AD0003F490420FEF7E8F904E03C490420FEF7C2
